:1000000019C028C0ADC126C025C024C023C022C04D
:1000100021C03DC433C1F1C31DC01CC01BC01AC0E8
:1000200019C018C017C016C015C014C013C012C024
:1000300011C010C011241FBECFEFD2E0DEBFCDBF74
:1000400021E0A0E0B1E001C01D92A03AB207E1F7C3
:100050008BD4DDC4D5CF84B58F7B84BD10920201D3
:10006000109203011092800082E8809381008FEF4C
:1000700086BB80E280936F00089584B58F7B84BD3A
:1000800010920301109280008AE080938100109208
:100090008500109284008FEF9FEF909389008093EA
:1000A000880086BB82E080936F0008956F927F92F4
:1000B0008F929F92AF92BF92CF92DF92EF92FF9278
:1000C0000F931F93CF93DF9380914B0180939801FF
:1000D00080914C018093990140914D0160E070E066
:1000E000EDE4F1E000E010E0712C612CC0E0D0E024
:1000F00080E090E0C12CD12C7601812C912C540110
:100100008394362F3296DF0111972C91411104C050
:1001100010929A0120E025C0211103C040939A015A
:1001200020C060327105D9F050E030E0D901AA0F4B
:10013000BB1FA417B50714F41F5F48C0DA01AA0F4C
:10014000BB1FA217B30714F40F5F40C0820F931FA9
:10015000840F951F639440816F5F7F4FD2CF30E251
:1001600021E0112341F0002361F02F5F113019F0DD
:1001700010929D0109C0023030F041E040939D0192
:1001800003C01130A9F72F5FC0929001D092910166
:10019000E0929201F0929301C0929401D092950165
:1001A000E0929601F092970130939E01662D70E0E7
:1001B00011D4FB01672D70E0CE010CD4CB01E0FD22
:1001C000319660FF18C0CB01019615C02C0F3D1F62
:1001D000EA01C20FD31F7394A5019401062E04C037
:1001E000220F331F441F551F0A94D2F7C22AD32A65
:1001F000E42AF52AB0CFF695E795E0939B018E1B94
:100200009F0B80939C01822FDF91CF911F910F91C3
:10021000FF90EF90DF90CF90BF90AF909F908F9026
:100220007F906F900895CF93DF9300D0CDB7DEB766
:100230001A82198289819A8101979A838983892BED
:10024000C9F70F900F90DF91CF910895ECDFEBDFAE
:10025000EADFE9CFCF93DF931F92CDB7DEB78823D4
:1002600049F05A9A8983DFDF5A98DDDFDCDF898124
:100270008150F5CF0F90DF91CF91E8CF1F920F9271
:100280000FB60F9211242F933F934F935F936F9369
:100290007F938F939F93AF93BF93EF93FF9380913F
:1002A000810086FF04C0809181008F7B03C0809114
:1002B000810080648093810087E88093B200209160
:1002C000860030918700E0910301E11107C0B89AE0
:1002D0008091700081608093700028C080914701F8
:1002E00090914801A901481B590B493D87E25807E5
:1002F00028F0909102019F5F90930201CA0168E289
:1003000070E068D36115710529F4809102018F5F57
:1003100080930201E53428F4F0E0E65BFE4F608351
:1003200005C0809102018F5F8093020130934801E4
:1003300020934701809103018F5F80930301FF9118
:10034000EF91BF91AF919F918F917F916F915F914D
:100350004F913F912F910F900FBE0F901F901895C6
:100360001F920F920FB60F9211242F933F934F932A
:100370005F936F937F938F939F93AF93BF93EF930D
:10038000FF9364DF809101018F5F80930101FF91F2
:10039000EF91BF91AF919F918F917F916F915F91FD
:1003A0004F913F912F910F900FBE0F901F90189576
:1003B000CF92DF92FF920F931F93CF93DF938B0126
:1003C0009C010A5211092109310906311105210543
:1003D000310508F03DC08B019C0166E0000F111F44
:1003E000221F331F6A95D1F7CFB7F894F999FECF42
:1003F000D80183E0F80180935700E89507B600FC28
:10040000FDCF60E070E0D1E0FA01F0804E5F5F4F19
:100410006D01C60ED71ECA010197FC01808190E0D4
:10042000982F88278F0D911DF6010C01D09357004E
:10043000E89511246E5F7F4F6034710529F785E0E0
:10044000F80180935700E89507B600FCFDCFCFBFB9
:10045000DF91CF911F910F91FF90DF90CF90089582
:10046000CF92DF92EF92FF92CF939A016B017C01C2
:100470004AE2C41AD108E108F10846E1C416D104E1
:10048000E104F10470F4CFB7F89446E0660F771FEB
:10049000881F991F4A95D1F740E450E0C901AED2B8
:1004A000CFBFCF91FF90EF90DF90CF900895CF9284
:1004B000DF92EF92FF92CF93DF938AE28093040161
:1004C000C5E0D1E060910401603408F049C0D093E8
:1004D0004601C093450170E080E090E045E051E0C6
:1004E000BFDFC0909001D0909101E0909201F09018
:1004F0009301E0914501F09146019F01205C3F4F3F
:1005000080E040815181628173814F3F9FEF5907A5
:1005100069077907E9F0411551056105710569F031
:100520004C155D056E057F0541F4882321F0F0939D
:100530004601E093450180E018C0709681E02E17D7
:100540003F07F9F6809104018F5F80930401BACFD1
:10055000882321F0F0934601E093450181E005C036
:10056000109246011092450182E0DF91CF91FF90F9
:10057000EF90DF90CF9008958F929F92AF92BF92AD
:10058000CF92DF92EF92FF920F931F93CF93DF935F
:10059000109200019091000180910101911103C01E
:1005A000869558DEF7CFC82FC695C53011F481E087
:1005B00003C0C63021F482E080934901AFC0C73048
:1005C00011F483E0F9CFC83011F484E0F5CFC930DD
:1005D00008F0A8C0C43089F5C0909401D09095016E
:1005E000E0909601F0909701109200018091000137
:1005F000811103C084E02EDEF9CF809194019091A7
:100600009501A0919601B0919701C816D906EA0606
:10061000FB0609F487C0F894E0E8FAE083E08093F1
:100620005700E89507B600FCFDCFE05CFF4FE115F1
:1006300090E1F907A1F7789471C0109200018091C0
:100640000001811103C081E005DEF9CF80909401A3
:1006500090909501A0909601B090970101E010E074
:10066000D0E0EC2EF12C9AEAD92EDC1709F456C012
:100670001092000182E0C82ECD0E80910001811100
:1006800003C08C2DE7DDF9CF809194019091950105
:10069000A0919601B091970188169906AA06BB060B
:1006A00009F440C0D11109C080929001909291014B
:1006B000A0929201B092930108C010929001109202
:1006C00091011092920110929301C13019F0E0163D
:1006D000F10619F410929F0102C0D0929F01E7DE4B
:1006E000882319F08230F1F002C0C130D9F4A09112
:1006F0004501B091460180E1E0E9F1E001900D9201
:100700008A95E1F76091040170E080E090E045E0B7
:1007100051E04EDEDF5F0F5F1F4FA7CF81E09ADD14
:1007200080E003C08AE096DD81E0DF91CF911F91E8
:100730000F91FF90EF90DF90CF90BF90AF909F9080
:100740008F900895CF93DF93E0914501F09146019A
:100750004481558166817781808580934A018185B6
:1007600080934B01ACE4B1E0CDE4D1E020E0CD01D9
:1007700036852317B8F440FF09C08585882321F00A
:1007800083858C93848505C0848501C083858C9383
:100790008385888376956795579547952F5F129641
:1007A0002296E5CF2285222311F02C930196DC01BD
:1007B0001C9287858A3AD1F47096F0934601E093B3
:1007C0004501E554F140B0F0609104016F5F609322
:1007D000040170E080E090E045E051E041DE85E01A
:1007E00091E0909346018093450104C01092460128
:1007F00010924501DF91CF9108951F920F920FB68D
:100800000F9211242F933F934F935F936F937F9396
:100810008F939F93AF93BF93EF93FF932091030127
:10082000E22FF0E0E65BFE4F80818823A9F038E2FA
:10083000839FC0011124909389008093880084B520
:1008400020FD02C0806401C08F7B84BD80910301C4
:100850008F5F809303010AC080914501909146010A
:10086000892B19F06FDF09DC01C0F5DBFF91EF91F7
:10087000BF91AF919F918F917F916F915F914F91B8
:100880003F912F910F900FBE0F901F9018951F92C0
:100890000F920FB60F9211242F933F934F935F93B4
:1008A0006F937F938F939F93AF93BF93EF93FF9338
:1008B000809170008E7F8093700080916F008F7D9B
:1008C00080936F0080910301E82FF0E0E65BFE4F1C
:1008D0001082843128F4809102018F5F809302019D
:1008E0008091020181112EC0E1DB81112BC080912A
:1008F0004901813009F44A9A8091010181111DC09A
:1009000080914901833029F480919E01803209F45D
:100910004A9A80914901843029F480919E01803166
:1009200009F44A9AC4DD811108C0809149018230DE
:1009300009F44A9A07DFA1DB06C0809100018F5FAE
:100940008093000188DBFF91EF91BF91AF919F9160
:100950008F917F916F915F914F913F912F910F9068
:100960000FBE0F901F90189580E880936100109241
:100970006100529A569A2098589A53985B9A10920E
:10098000C50087E68093C40082E08093C00098E1B0
:100990009093C10096E09093C20084BD81E085BD34
:1009A0008AE687BD569A5E9856DB1092B00087E0C3
:1009B0008093B10088E080936900E99A789483B7C6
:1009C000816083BF8895809101018111D5DD1092EE
:1009D0000101F8CFAA1BBB1B51E107C0AA1FBB1F17
:1009E000A617B70710F0A61BB70B881F991F5A95BB
:1009F000A9F780959095BC01CD010895FB01DC011C
:100A000002C005900D9241505040D8F70895F894D7
:020A1000FFCF16
:00000001FF
